:1000000002000375816B12013DE582600302006FFF
:10001000780079007A007B007C007D00EC4D601C4C
:1000200088828983E493A3A882A9838A828B83F040
:10003000A3AA82AB831CBCFFE31D80E07582007520
:1000400083007C007D00EC4D600AE4F0A31CBCFF43
:10005000F51D80F27582007583007C007D00EC4DFB
:10006000600AE4F0A31CBCFFF51D80F212013C12F3
:100070000C1D80FE1B5B324A0041444320746573B3
:10008000742070726F6772616D0A46696C653A2000
:1000900025730A436F6D70696C65643A2025732C73
:1000A0002025730A0A00433A5C55736572735C63DA
:1000B0006172736F5C446F63756D656E74735C31F0
:1000C0002E205363686F6F6C5C302E205370726902
:1000D0006E6720323031385C456C656320323932CE
:1000E0005C6C6162355C6D61675F70686173655FF0
:1000F00045464D382E63004D617220203820323045
:1001000031380031343A34323A3539003130303018
:100110000D0A002566200D0A202566200D0A2025DF
:10012000690D0A00313030310D0A0056722020204E
:100130005674202020506861736520002275A70046
:100140007597DE7597AD43FF8075EF0275A7107543
:10015000C12075A70075A90075A900E5A930E7FBC6
:1001600075A90375A903E5A930E7FB43A41075E160
:100170000175E20075E340759810858E8E758DE6E9
:10018000858D8B53890F438920D28ED29975820039
:1001900022AA82438E407592B87593FF859294850A
:1001A00093957591047B00C3EB9A500BE59130E772
:1001B000FB53917F0B80F075910022AA82AB837C68
:1001C000007D00C3EC9AED9B502B7E00BE040050D6
:1001D0001D7582FAC002C003C004C005C00612012A
:1001E00091D006D005D004D003D0020E80DE0CBC26
:1001F00000D10D80CE22D2A5758228120191C2A510
:1002000022AA828AE0A2E792A1A2E692A2A2E592A5
:10021000A3A2E492A4C0021201F6758228120191F1
:10022000D0028AE0A2E392A1A2E292A2A2E192A36A
:10023000A2E092A40201F6AA82D2A68A8212020148
:100240009000020201BBAA82C2A68A821202019019
:1002500000050201BBC2A59000141201BB758233D8
:1002600012024675823312024675823212024675B8
:10027000822812024675820C120246758201120211
:10028000469000140201BBAA82AB83ACF07402B5A5
:1002900026047DC080027D808D82C002C003C00420
:1002A0001202469000051201BBD004D003D0027D9B
:1002B000007E00ED2AFFEE3BF88C018F8288838957
:1002C000F01210D6FF60208F82C002C003C004C0AD
:1002D00005C006120237D006D005D004D003D002E4
:1002E0000DBD00CF0E80CC3000248D028E03C3EAFA
:1002F0009410EB648094805015758220C002C00376
:10030000120237D003D0020ABA00E30B80E022AA1F
:1003100082AB83ACF07402B527047DC080027D807F
:100320008D82C002C003C004120246900005120173
:10033000BBD004D003D002E4F528F529FFF8EF2A5A
:10034000F9E83BFD8C0689828D838EF01210D6F978
:10035000600F0528E4B5280205290FBF00E00880DA
:10036000DDE52824FFFDE52934FFFEEE20E731ED31
:100370002AFFEE3BF88C018F82888389F01210D619
:10038000F582C002C003C004C005C006120237D007
:1003900006D005D004D003D0021DBDFF011E80CBC6
:1003A0003001248D028E03C3EA9410EB64809480A4
:1003B0005015758220C002C003120237D003D0024C
:1003C0000ABA00E30B80E02285822C85832D85F01C
:1003D0002EE4F52FF530E52A24FFFFE52B34FFF856
:1003E00079007A00C3E99FEA648088F063F0809521
:1003F000F05059C002C007C000C001121322AB82E6
:10040000D001D000D007D002BB0A028003BB0D1D73
:10041000E52F252CFCE530352DFDAE2E8C828D830D
:100420008EF0E4121362852F8285308322E9252C19
:10043000FCEA352DFDAE2E8C828D838EF0EB1213EF
:100440006209B900010A892F8A308098E52F252C8E
:10045000FAE530352DFBAC2E8A828B838CF0E412CA
:100460001362852A82852B8322AA82851CF005F0DF
:100470007401800225E0D5F0FBFB75A720BA0002CD
:10048000800ABA0102800FBA021E8014EBF4FA52FD
:10049000F1EB42D48012EBF4FA52F2EB42D5800831
:1004A000EBF4FA52F3EB42CC75A700228582BBD263
:1004B000EC20ECFDD2EC20ECFD85BD8285BE8322D4
:1004C0001204AC1210F2AA82AB83ACF0FDC002C0E1
:1004D00003C004C005906C8B75F05374401211AFCB
:1004E000AA82AB83ACF0FDE58124FCF581E4C0E099
:1004F00074FCC0E0747FC0E07446C0E08A828B83E5
:100500008CF0ED1213C0AA82AB83ACF0FDE5812420
:10051000FCF5818A828B838CF0ED2275A70075B281
:100520008075BCF875B91E75E80075DF3F75B300BE
:10053000D2EF22758A00758C00C28DE4F522F52376
:10054000F524F52520A0FD30A0FDD28C30A0191097
:100550008D0280F80522E4B522F20523B523ED05CE
:1005600024B524E8052580E420A019108D0280F828
:100570000522E4B522F20523B523ED0524B524E8D0
:10058000052580E4C28C8522828523838524F0E5BD
:1005900025121335AA82AB83ACF0FDC002C003C0A4
:1005A00004C00590000075F08074471211AFAA8254
:1005B000AB83ACF0FDE58124FCF581858C82C00223
:1005C000C003C004C005121252AE82AF83A8F0F976
:1005D000C006C007C000C00190000075F0807443E1
:1005E0001211AFAE82AF83A8F0F9E58124FCF5814A
:1005F000D005D004D003D002C006C007C000C0019F
:100600008A828B838CF0ED12125DAA82AB83ACF0F0
:10061000FDE58124FCF581AE8A7F008E828F83C048
:1006200002C003C004C0051213B3AE82AF83A8F0AA
:10063000F9D005D004D003D002C006C007C000C066
:10064000018A828B838CF0ED12125DAA82AB83AC9F
:10065000F0FDE58124FCF581C002C003C004C005A3
:1006600090C33E75F02E74391211AFAA82AB83ACE1
:10067000F0FDE58124FCF5818A828B838CF0ED22EC
:10068000758A00758C00C28DE4F522F523F524F5FA
:10069000252097FD75825A1201912097FD3097FD14
:1006A00075825A1201913097FDD28C309719108DB6
:1006B0000280F80522E4B522F20523B523ED0524D6
:1006C000B524E8052580E4209719108D0280F805EF
:1006D00022E4B522F20523B523ED0524B524E8056F
:1006E0002580E4C28C8522828523838524F0E5253C
:1006F000121335AA82AB83ACF0FDC002C003C00464
:10070000C00590000075F08074471211AFAA82AB4B
:1007100083ACF0FDE58124FCF581858C82C002C0AC
:1007200003C004C005121252AE82AF83A8F0F9C014
:1007300006C007C000C00190000075F0807443122D
:1007400011AFAE82AF83A8F0F9E58124FCF581D02A
:1007500005D004D003D002C006C007C000C0018A83
:10076000828B838CF0ED12125DAA82AB83ACF0FD1C
:10077000E58124FCF581AE8A7F008E828F83C002E2
:10078000C003C004C0051213B3AE82AF83A8F0F952
:10079000D005D004D003D002C006C007C000C001FD
:1007A0008A828B838CF0ED12125DAA82AB83ACF04F
:1007B000FDE58124FCF581C002C003C004C00590A2
:1007C000C33E75F02E74391211AFAA82AB83ACF020
:1007D000FDE58124FCF5818A828B838CF0ED22AAD1
:1007E00082AB83ACF0FDC002C003C004C005C002F0
:1007F000C003C004C00590000075F07A7444121163
:10080000AFAE82AF83A8F0F9E58124FCF581E4C0A6
:10081000E0C0E07480C0E07440C0E08E828F8388C6
:10082000F0E91213C0AE82AF83A8F0F9E58124FC91
:10083000F5818E828F8388F0E912117BAE82AF83BF
:10084000D005D004D003D002C006C007E4C0E0C089
:10085000E07480C0E07440C0E08A828B838CF0ED4D
:100860001213C0AA82AB83ACF0FDE58124FCF581B4
:100870008A828B838CF0ED12117BAA82AB83D00726
:10088000D00620A0FD30A0FD8A828B83C006C00761
:100890001201BBD007D0068E8212019175820B0225
:1008A00004C0AA82AB83ACF0FDC002C003C004C088
:1008B00005C002C003C004C00590000075F07A7442
:1008C000441211AFAE82AF83A8F0F9E58124FCF5A4
:1008D00081E4C0E0C0E07480C0E07440C0E08E827B
:1008E0008F8388F0E91213C0AE82AF83A8F0F9E5D8
:1008F0008124FCF5818E828F8388F0E912117BAE12
:1009000082AF83D005D004D003D002C006C007E474
:10091000C0E0C0E07480C0E07440C0E08A828B8395
:100920008CF0ED1213C0AA82AB83ACF0FDE58124FC
:10093000FCF5818A828B838CF0ED12117BAA82AB4D
:1009400083D007D0062097FD3097FD8A828B83C025
:1009500006C0071201BBD007D0068E821201917526
:10096000820C0204C085823185833285F033F534F0
:10097000E4FEFFF535F536F58AF58CC28DE4F522F7
:10098000F523F524F525EE4F700C20A0F92097F6FD
:100990007E017F0080F0E5354536701430A0067585
:1009A0003501E4F5363097EE7535FF7536FF80E694
:1009B0007401B53506E4B536028002801ED28C2063
:1009C0009741108D0280F80522E4B522F20523B587
:1009D00023ED0524B524E8052580E474FFB535230F
:1009E00074FFB5361ED28C20A019108D0280F80538
:1009F00022E4B522F20523B523ED0524B524E8054C
:100A00002580E4C28C8522828523838524F0E52518
:100A1000121335AE82AF83A8F0F9C006C007C0003C
:100A2000C00190000075F08074471211AFAE82AF24
:100A300083A8F0F9E58124FCF581858C82C006C08D
:100A400007C000C001121252AA82AB83ACF0FDC0F5
:100A500002C003C004C00590000075F0807443120A
:100A600011AFAA82AB83ACF0FDE58124FCF581D007
:100A700001D000D007D006C002C003C004C0058E5C
:100A8000828F8388F0E912125DAA82AB83ACF0FDFD
:100A9000E58124FCF581AE8A7F008E828F83C002BF
:100AA000C003C004C0051213B3AE82AF83A8F0F92F
:100AB000D005D004D003D002C006C007C000C001DA
:100AC0008A828B838CF0ED12125DAA82AB83ACF02C
:100AD000FDE58124FCF581C002C003C004C005907F
:100AE000C33E75F02E74391211AFAA82AB83ACF0FD
:100AF000FDE58124FCF581C002C003C004C005905F
:100B0000000075F0B474431211AFAA82AB83ACF04D
:100B1000FDE58124FCF581C031C032C033C0348A88
:100B2000828B838CF0ED1213C0AA82AB83ACF0FDF4
:100B3000E58124FCF5818A828B838CF0ED12117B98
:100B4000AA82AB837401B53506E4B5360280028013
:100B500007C3E49AFAE49BFB8A828B83225389F0D1
:100B6000438901C28C2285823985833A85F03B1204
:100B700010D6F53CA31210D6F53DA31210D6F53EC3
:100B8000A31210D6F53F79007A00C3E99537EA64DD
:100B9000808538F063F08095F050768903EACB25A4
:100BA000E0CB33CB25E0CB33FCEB2539FBEC353AFE
:100BB000FCAD3B8B828C838DF01210D6FBA3121000
:100BC000D6FCA31210D6FDA31210D6FEC002C0039D
:100BD000C004C005C006C001C03CC03DC03EC03F0F
:100BE0008B828C838DF0EE1210FEAF82E58124FCA7
:100BF000F581D001D006D005D004D003D002EF603B
:100C0000088B3C8C3D8D3E8E3F09B900010A020BDA
:100C10008A853C82853D83853EF0E53F22E4F5529E
:100C2000F553F554120B5D1202559001F41201BBFD
:100C30007474C0E07400C0E07480C0E01212CB1580
:100C400081158115817403C0E07401C0E07480C017
:100C5000E074F7C0E07400C0E07480C0E074A6C027
:100C6000E07400C0E07480C0E07479C0E07400C03B
:100C7000E07480C0E01212CBE58124F4F581751C8C
:100C800005758201120469751C06758201120469DA
:100C900012051B12053385824885834985F04AF584
:100CA0004B12068085824C85834D85F04EF54F852D
:100CB0004882854983854AF0E54B1207DFA982AD5A
:100CC00083AEF0FF74F3C0E07404C0E074B5C0E01C
:100CD000743FC0E089828D838EF0EF1213C085824D
:100CE0004085834185F042F543E58124FCF581850B
:100CF0004C82854D83854EF0E54F1208A2A982AD46
:100D000083AEF0FF74F3C0E07404C0E074B5C0E0DB
:100D1000743FC0E089828D838EF0EF1213C085820C
:100D20004485834585F046F547E58124FCF58185BA
:100D30004882854983854AF0E54B120965858250D2
:100D40008583517474C0E07400C0E07480C0E01208
:100D500012CB158115811581C040C041C042C043EE
:100D600090000075F07A74441211AFAE82AF83A880
:100D7000F0FDE58124FCF5818E828F8388F0ED12F1
:100D8000117B858257858358C044C045C046C04703
:100D900090000075F07A74441211AFAF82A883A955
:100DA000F0FDE58124FCF5818F82888389F0ED12C6
:100DB000117B858255858356308603020E76740C2E
:100DC000C0E07401C0E07480C0E01212CB15811540
:100DD000811581740CC0E07401C0E07480C0E01221
:100DE00012CB158115811581C044C045C046C0474E
:100DF0009004F375F0B5743F1211AFAF82A883A9C8
:100E0000F0FDE58124FCF581C005C007C000C001EC
:100E1000C040C041C042C0439004F375F0B5743F78
:100E20001211AFAE82AA83ABF0FCE58124FCF58100
:100E3000D001D000D007D005C050C051C007C000BD
:100E4000C001C005C006C002C003C0047413C0E0E6
:100E50007401C0E07480C0E01212CBE58124F3F588
:100E6000817424C0E07401C0E07480C0E01212CB31
:100E7000158115811581E4FAFBE55130E70F7A0100
:100E80007B00C3E49550F550E49551F551E4BA0167
:100E900004BB000104FA7B007C00E550455170035F
:100EA000020F47EB2552FDEC3553FEAF54751C0A7B
:100EB000E4F51D855082855183C002C003C004C083
:100EC00005C006C0071212ECA882D007D006D005D4
:100ED000D004D0037430288D828E838FF012136279
:100EE00074032BFDE43CFEED2552FDEE3553FEAFC1
:100EF000548D828E838FF07420121362751C0AE465
:100F0000F51D855082855183C003C00412137B8573
:100F10008250858351D004D003D0020BBB00010C5A
:100F2000EA7003020E9AE55045516003020E9AEBF7
:100F30002552FDEC3553FEAF548D828E838FF074B5
:100F40002D121362020E9A74022BFBE43CFA8B04FE
:100F50008A05E55545566075EC2552F559ED355332
:100F6000F55A85545B751C0AE4F51D855582855636
:100F700083C004C0051212ECA982D005D0047430DD
:100F800029855982855A83855BF012136274032C7C
:100F9000FEE43DFFEE2552FEEF3553FFA8548E824E
:100FA0008F8388F07420121362751C0AE4F51D8586
:100FB0005582855683C004C00512137B85825585F2
:100FC0008356D005D0040CBC00880D808574012C9C
:100FD000FBE43DFAE5574558607CEB2552FCEA35C9
:100FE00053FDAE54751C0AE4F51D85578285588360
:100FF000C002C003C004C005C0061212ECAF82D00C
:1010000006D005D004D003D00274302F8C828D839B
:101010008EF012136274032BFCE43AFDEC2552FCB3
:10102000ED3553FDAE548C828D838EF074201213F7
:1010300062751C0AE4F51D855782855883C002C07D
:101040000312137B858257858358D003D0020BBBD4
:1010500000010A020FD4EB2552FBEA3553FAAC54D7
:101060008B828A838CF0E4121362752601D2009081
:10107000012B75F080120287752702D201855282FA
:101080008553838554F012030F9001F41201BB7A4B
:10109000007B00C3EA940FEB64809480501CEA2527
:1010A00052FCEB3553FDAE548C828D838EF0742050
:1010B0001213620ABA00DC0B80D90ABA00010BEAEB
:1010C0002552FAEB3553FBAC548A828B838CF0E4C7
:1010D000121362020C9320F71430F6148883A8824E
:1010E00020F507E6A88375830022E280F7E49322C7
:1010F000E022E4AC83AB82FAF9748E021511FFA8EA
:10110000811818121539D2D133E6400730E70B7534
:1011100082012220E70675820022C2D112151BE946
:101120007003F5822230D101B3E433F58222E51C4D
:10113000451D60467A01E51C25E0F51CE51D3340A0
:1011400012F51DE582951CE583951D40030A80E696
:10115000C3E51D13F51DE51C13F51CC3E582951CA5
:10116000F5F0E583951D4005F58385F082C3E51D07
:1011700013F51DE51C13F51CDAE122121564700A43
:10118000E582458345F0700122E430D112F4700B02
:10119000E5F0F47006E58330E701229080002270CC
:1011A0000AE5F07006E58320E70122907FFF221216
:1011B0001641BC00030215E0EF60FA30D502B2D14F
:1011C000E583B4FF030215F6E582B4FF030215F6CA
:1011D000258340072482400B0215E024831450032A
:1011E0000215F6F582EA8DF0A4A8F0EA8EF0A428A4
:1011F000F8E435F0F9EB8DF0A428E935F0F9E433A3
:10120000CA8FF0A429F9EA35F0FAEBF88EF0A42998
:10121000F9EA35F0FAE433FBEC8DF0A429F9EA356C
:10122000F0FAE43BFBE88FF0A42AFAEB35F0FBE49C
:1012300033CCFD8EF0A42AFAEB35F0FBE43CFCED58
:101240008FF0A42BFBEC35F0FC20E70312160E0206
:1012500015BFE4AC82FBFAF974860215111216412F
:101260007900E583B58202800D500312166FE58385
:10127000C39582121689E5D0C465D020E117EA2D06
:10128000FAEB3EFBEC3FFC50097401121689EC446A
:1012900080FC0215BFC3EA9DFAEB9EFBEC9FFC505D
:1012A0000FC3E499F9E49AFAE49BFBE49CFCB2D105
:1012B00012160E0215BF02205885821885831985E3
:1012C000F01A85091B9012B6021AABC00885810876
:1012D000E50824FBF51BE50824FBF88618088619A9
:1012E00008861A9012B6121AABD00822C2D5E5832E
:1012F00030E70DD2D5E4C39582F582E49583F5837A
:10130000E51D30E70BE4C3951CF51CE4951DF51DA8
:1013100012112E30D50BE4C39582F582E49583F546
:10132000832210980280FBAA998A82C00212205858
:10133000D0028A8222FCABF0AA83A982749EF58235
:10134000C2D1EC30E716D2D1E9F42401F9EAF43441
:1013500000FAEBF43400FBECF43400FC12160E023D
:1013600015BF20F71030F6118883A88220F507F604
:10137000A88375830022F280F7F022C2D5E583307E
:10138000E70DD2D5E4C39582F582E49583F583E534
:101390001D30E70DB2D5E4C3951CF51CE4951DF591
:1013A0001D1214DF30D50BE4C39582F582E49583DA
:1013B000F58322AC83AB827A007900748E02133EEF
:1013C00012164130D502B2D1BF0009BC000302168B
:1013D000030215F6BC00030215E0E583B4FF0BE53C
:1013E00082B4FF030216030215E0E582B4FF030294
:1013F00015F6C395835007247F400B0215E0248027
:101400001450030215F6C0E0E4CCCBCAF98D1C8E53
:101410001D8F1EEF54F0C4F51F758306851FF0EB7A
:1014200084F582E9C4F9EAC4FAEBC4FBEC540FC4B6
:101430007803D6FC18EBD6FB18EAD6FA8582F0EDD5
:10144000A4A8F0FD8582F0EEA428FEE435F0F8852E
:1014500082F0EFA428FFE435F0F8E99DF9EA9EFA5E
:10146000EB9FFBEC98FCAD1CAE1DAF1E30E71015DA
:1014700082E92DF9EA3EFAEB3FFBE43CFC80EDC04B
:1014800082D58398C3E933F9EA33FAEB33FBEC33C3
:10149000FCC3E99DEA9EEB9FEC9400B3E413F9D002
:1014A00002D0E0C44AFAD003D0E0C44BFBD004D051
:1014B000E0F5F0540FC44CFCD082158230F40FD309
:1014C000EC13FCEB13FBEA13FAE913F90582E9309C
:1014D000E70A74012AFAE43BFBE43CFC0215D77AE4
:1014E00010E4FBFCE58225E0F582E58333F583EB30
:1014F00033FBEC33FCEB951CF5F0EC951D4006FC42
:10150000ABF0438201DADD22FCABF0AA83A982743E
:101510009EC2D1F58212160E0215BF7901AA82E68B
:101520008F82B5821318E6B5F00E18E6B583091858
:10153000E68A82B58202790022B4800FE5F0700A53
:10154000E5837006E58270027F00EFB6801518B65D
:10155000001018B6000B18B600060808087600221E
:101560000808082212206DC3749E958240397900C4
:1015700012168930D126E9F42401F582EAF4340008
:10158000F583EBF43400F5F0ECF43400700AE582F6
:10159000458345F0700122E430E70F22EC20E71488
:1015A00089828A838BF02230D10AE4F582F583F5B3
:1015B000F074802274FFF582F583F5F0747F22B910
:1015C0008003EA13B34010EA2401FAE43BFBE43C55
:1015D000FC50047C800582BC000EBB000BBA0008E6
:1015E000E4F5F0F583F58222A2D1E582138CF09226
:1015F000F78B838A8222E4F583F58275F080F4A26A
:10160000D11322E4F583F58275F0C0747F2278044B
:10161000EC7011E58224F8500AF582E4C9CACBFCCB
:10162000D8EF22EC7820058220E713D5820122C36F
:10163000E933F9EA33FAEB33FBEC33FCD8EA1582F1
:1016400022AA82AB83A2F73392D16002D2F7F5824D
:10165000ACF0E58124F9F8E6FD08E6FE0886F0081E
:10166000E6A2F73392D56002D2F7F583AFF022E518
:1016700082C583F582A2D133A2D592D11392D5EC43
:10168000CFFCEBCEFBEACDFA226040F82582500277
:1016900074FFF582E824F8501ECCCBCAF9E4CC24C0
:1016A000F85014CBCAF9E4CB24F8500BCAF9E4CAB9
:1016B00024F8500379002224086010F8C3EC13FCCE
:1016C000EB13FBEA13FAE913F9D8F122AA8274DDCD
:1016D000C0E07416C0E0C00AC00B8A82220511E483
:1016E000B51102051222AA8274302AFA24C6500AC1
:1016F00074072AFA3002034302208A820216CCE5DC
:1017000082FAC4540FF582C0021216E6D002740F9A
:101710005AF5820216E6AA0CAB0DAC0EAD0FAE1058
:10172000751720EE2EFEED235401FF4206EA2AFA39
:10173000EB33FBEC33FCED33FDC3EE95134008EEC9
:10174000C39513FE430201D517D98A0C8B0D8C0E5D
:101750008D0F8E10227868E624D075F00AA4FA78EE
:1017600069E624D02AFA78678603BB2D04C3E49A7D
:10177000FA751301C3E464808AF063F08095F05039
:10178000297517038A0374F62517401C0513E517FE
:1017900014245CF8E517245CF98704A604772E1B53
:1017A000EBFA6004051780DE8B02EA30E70D785D06
:1017B0008603785EA603785D762E0AE515600AE555
:1017C0001504FB2513F5138005300D020513785C15
:1017D0008603E4BB2D0104FB7006200803300902D8
:1017E000051330060302189C300757EB600C758216
:1017F0002DC0021216CCD002801C30080C75822B32
:10180000C0021216CCD002800D30090A758220C0A9
:10181000021216CCD002785D8604BC2E0C75823084
:10182000C0021216CCD0021514AC141514C3E51363
:101830009C40030218E0758230C0021216CCD00220
:1018400080E7AC141514C3E5139C500C758220C0BE
:10185000021216CCD00280EA785C8604BC2D0C758E
:10186000822DC0021216CCD002801C30080C75826A
:101870002BC0021216CCD002800D30090A758220CE
:10188000C0021216CCD002785D8604BC2E5275823E
:1018900030C0021216CCD00215148044EB600E75D5
:1018A000822DC0021216CCD0021514802030080EF2
:1018B00075822BC0021216CCD0021514800F30098D
:1018C0000C758220C0021216CCD0021514785D86E9
:1018D00003BB2E0C758230C0021216CCD002151438
:1018E000751701C20FE517245CF88603BB45030298
:1018F000199DBB2E348A03C3E464808BF063F080AF
:1019000095F0500F758230C0031216CCD0031B8B9C
:101910000280E48B02D20FE5157038200D03021906
:101920009D75822E1216CC8074300F278A03EB30FF
:10193000E71FC3E464808515F063F08095F0500CD8
:10194000758230C0031216CCD00315150B8B0280A4
:10195000DD8B02300F0EC3E464808515F063F080E8
:1019600095F05021E517245CF886038B82C00212A3
:1019700016CCD002300F0EE517245CF88603BB2E80
:1019800002800215151514C3E464808515F063F018
:101990008095F04003200F0505170218E5C3E464A5
:1019A000808515F063F08095F0500A75823012162C
:1019B000CC151580E830060FAA141514EA600875D6
:1019C00082201216CC80F122E5157003300D0D74C3
:1019D000072515FAE514C39AF5148006E51424FAD0
:1019E000F514751700785C8602BA2B0F20080C7866
:1019F0005C76202009057517010514200619AA1424
:101A0000C3E464808AF063F08095F0500A75822008
:101A10001216CC151480E7C20FE517245CF8860275
:101A2000BA00028069BA451F3002027665C3E464D9
:101A3000808515F063F08095F0500A75823012169B
:101A4000CC151580E8D20FC3E5179402E433FA7081
:101A500014EA700EC3E464808515F063F08095F09D
:101A60004003300F16E517245CF886028A821216AE
:101A7000CCE51724FD50121515800E7402B5170918
:101A8000300D0675822E1216CC0517021A19300673
:101A900019AA14C3E464808AF063F08095F0500AB8
:101AA0007582201216CC151480E72285820A858360
:101AB0000BE4F511F512AA18AB19AC1A8A828B83C4
:101AC0008CF01210D6FD74012AF518E43BF5198C40
:101AD0001AEDFA7003022051BA2502800302204950
:101AE000C206C207C208C209C20AC20BC20CC20D9A
:101AF000C203C204C2057513007514007515FFAB4F
:101B000018AC19AD1A8B828C838DF01210D6FAA303
:101B1000AB82AC838B188C198D1ABA25078A821276
:101B200016CC80928A06BE3000402E8A06EE24C66D
:101B3000402774FFB51513E51475F00AA4FEEA24D6
:101B4000D02EF51470BFD20780BBE51575F00AA43E
:101B5000FEEA24D02EF51580ACBA2E0A74FFB51516
:101B6000A4751500809F8A06BE6100400E8A06EEAD
:101B7000248540075302DFD2028002C202BA20024B
:101B80008075BA2303021C06BA2A03021C0BBA2B67
:101B900002805FBA2D028055BA4202805FBA4303C9
:101BA000021C50BA4403021D8BBA4503021DA5BA9C
:101BB0004603021DA1BA4703021DA9BA4903021D2B
:101BC0008BBA4C02803BBA4E03021DADBA4F0302E2
:101BD0001D92BA5003021D24BA5303021C74BA5555
:101BE00003021D97BA5803021D9C021DD7D206029C
:101BF0001B05D208021B05D209021B05D20B021BD2
:101C000005D20C021B05D20D021B0574FFB5152071
:101C1000300B0BE51B14F8881B8614021B05E51B13
:101C200024FEF8881B8606088607188E14021B05FA
:101C3000300B0BE51B14F8881B8615021B05E51BF2
:101C400024FEF8881B8606088607188E15021B05D9
:101C5000300B0AE51B14F8881B8602800FE51B2455
:101C6000FEF8881B8603088604188B028A821216E7
:101C7000CC021DDCE51B24FDF8881B8603088604C6
:101C800008860518188B0C8C0D8D0E8B828C838D1D
:101C9000F012219EAB82AC838B1674FFB5150385C1
:101CA000161520061DC3E51695145016E514C395A8
:101CB00016F514AB141514EB60087582201216CCBF
:101CC00080F1850C82850D83850EF01210D6FBFA0B
:101CD0006029AB151515C3E464808BF063F0809523
:101CE000F050188A821216CCAB0CAC0DAD0E0BBBAB
:101CF00000010C8B0C8C0D8D0E80C7200603021D7D
:101D0000DCC3E51695144003021DDCE514C39516EB
:101D1000F514AB141514EB7003021DDC7582201250
:101D200016CC80EEE51B24FDF8881B86030886048C
:101D300008860518188B0C8C0D8D0EE50EFB30E710
:101D4000047A438013EB546060047A50800AEB30CD
:101D5000E6047A4980027A588A82C0021216CC754B
:101D6000823A1216CC7582301216CC758278121611
:101D7000CCD002BA4902800BBA50028006850D828F
:101D80001216FF850C821216FF8051D20A75130AB3
:101D9000804A751308804575130A804075131080BA
:101DA0003BD2038037D2048033D205802FE51B2439
:101DB000FDF8881B860308860408860518188B0C16
:101DC0008C0D8D0E8B828C838DF0E511121362A326
:101DD000E51212136280058A821216CC20030620B7
:101DE0000403300570E51B24FCF8881B8603088675
:101DF000040886050886061818188B0C8C0D8D0EA5
:101E00008E0FE50CE50DE50EE50F8B828C838DF0D2
:101E1000EE12207F74FFB515037515063005277483
:101E20007F550FFB8B10E510EB2BFB8B10E50E3075
:101E3000E70674014510F510E51024684006749912
:101E400025104002D2043004061219C8021AB61234
:101E50001755021AB6E5137003021AB67B61300BF0
:101E60002BE51B14F8881BE6FC3395E0FDFEFF8C88
:101E70000C8D0D8E0E8F0F200A5EAC0C7D007E0047
:101E80007F008C0C8D0D8E0E8F0F804C300C1FE55B
:101E90001B24FCF8881B860408860508860608862D
:101EA000071818188C0C8D0D8E0E8F0F802AE51BCD
:101EB00024FEF8881B860408860518ED3395E0FE9D
:101EC000FF8C0C8D0D8E0E8F0F200A0CAC0CAD0DFF
:101ED0007E007F008E0E8F0F300D43E50C450D45C3
:101EE0000E450F60397408B5130C758230C00312AB
:101EF00016CCD00380287410B51323758230C0032C
:101F00001216CCD00330020C758278C0031216CCA6
:101F1000D003800A758258C0031216CCD003300A51
:101F200025AC0CAD0DAE0EE50FFF30E717C3E49CFA
:101F3000FCE49DFDE49EFEE49FFF8C0C8D0D8E0E57
:101F40008F0F8002C20A751600D20E8B007510002A
:101F5000C000121716D000200E0DE510C4FCE6FDDF
:101F60004CF61888038002A6100516B20EE50C4543
:101F70000D450E450F70D68803E5147003751401E6
:101F800020071A200617E51604FCC39514500E7599
:101F90008220C0031216CCD003151480E9300A0E3B
:101FA00075822DC0031216CCD00315148024E516BB
:101FB000602030080E75822BC0031216CCD003159A
:101FC00014800F30090C758220C0031216CCD00388
:101FD000151420061EAC141514C3E5169C502730AA
:101FE00007047C3080027C208C82C0031216CCD087
:101FF0000380E2C3E51695145009E514C39516F560
:102000001480037514008B00AB161516EB6022B21A
:102010000E200E0A08E6C4540FFB8B1080078603BF
:10202000740F5BF510851082C0001216E6D0008098
:10203000D7200603021AB6AB141514EB7003021A6C
:10204000B67582201216CC80EE8A821216CC021A45
:10205000B685118285128322AA82BA0A08109902D3
:1020600080FB75990D10990280FB8A9922AA82AB98
:1020700083A2F73392D16002D2F7F582ACF022C08E
:10208000E0F84582458345F07009F5F0FBFCFDFE64
:1020900002214DE823A2F792E0F8A982AA83D2F7A1
:1020A000ABF07C007E07C3749798404074FF2EFE0F
:1020B000740A89F0A4F985F082740A8AF0A4FA857A
:1020C000F083740A8BF0A4FB740529F9EA3582FACF
:1020D000EB3583FB740035F0FCC3EC13FCEB13FB16
:1020E000EA13FAE913F908EC70EF80BAE8C3947FB9
:1020F000F88B838EF0E4FBFCFDFEFF08C3E933F9A7
:10210000EA33FAE58333F583EB3BD4FBEC3CD4FCB8
:10211000ED3DD4FDEE3ED4FEEF3FD4FF602D05F043
:1021200074052BD4FBE43CD4FCE43DD4FDE43ED464
:10213000FEE43FD4FF758204C3EF13FFEE13FEED00
:1021400013FDEC13FCEB13FBD582EDD8AF785CD01C
:10215000E020E704762B8002762D087906E7C45448
:102160000F4430F608B90603762E08E7540F4430C2
:10217000F60819B902E7764508E5F020E704762B62
:102180008004762DF4040875F00A844430F608E5DE
:10219000F04430F608E4F690005C75F04022AA8224
:1021A000AB83ACF07D007E008A828B838CF01210B2
:1021B000D6FFA3AA82AB83EF60070DBD00EA0E80B5
:1021C000E78D828E832200000000000000000000E6
:00000001FF
