:1000000002000375816412016DE582600302006FD6
:10001000780079007A007B007C007D00EC4D601C4C
:1000200088828983E493A3A882A9838A828B83F040
:10003000A3AA82AB831CBCFFE31D80E07582007520
:1000400083007C007D00EC4D600AE4F0A31CBCFF43
:10005000F51D80F27582007583007C007D00EC4DFB
:10006000600AE4F0A31CBCFFF51D80F212016C12C3
:100070000C3080FE1B5B324A0041444320746573A0
:10008000742070726F6772616D0A46696C653A2000
:1000900025730A436F6D70696C65643A2025732C73
:1000A0002025730A0A00433A5C55736572735C63DA
:1000B0006172736F5C446F63756D656E74735C31F0
:1000C0002E205363686F6F6C5C302E205370726902
:1000D0006E6720323031385C456C656320323932CE
:1000E0005C6C6162355C6D61675F70686173655FF0
:1000F00045464D382E63004D617220203820323045
:1001000031380031323A33313A34350056405031CB
:100110002E353D25372E3566562C20564050312E33
:10012000363D25372E3566562C20506572696F6432
:100130005F7265663D256C662C20506572696F6440
:100140005F746573743D256C662C207068617365FF
:1001500020646966663D2569200D00256C660D0AE0
:1001600020256C660D0A2025690D0A002275A7005E
:100170007597DE7597AD43FF8075EF0275A7107513
:10018000C12075A70075A90075A900E5A930E7FB96
:1001900075A90375A903E5A930E7FB43A41075E130
:1001A0000175E20075E340759810858E8E758DE6B9
:1001B000858D8B53890F438920D28ED29975820009
:1001C00022AA82438E407592B87593FF85929485DA
:1001D00093957591047B00C3EB9A500BE59130E742
:1001E000FB53917F0B80F075910022AA82AB837C38
:1001F000007D00C3EC9AED9B502B7E00BE040050A6
:100200001D7582FAC002C003C004C005C0061201F9
:10021000C1D006D005D004D003D0020E80DE0CBCC5
:1002200000D10D80CE22D2A57582281201C1C2A5AF
:1002300022AA828AE0A2E792A1A2E692A2A2E59275
:10024000A3A2E492A4C0021202267582281201C160
:10025000D0028AE0A2E392A1A2E292A2A2E192A33A
:10026000A2E092A4020226AA82D2A68A82120231B7
:100270009000020201EBAA82C2A68A821202319089
:1002800000050201EBC2A59000141201EB75823348
:1002900012027675823312027675823212027675F8
:1002A000822812027675820C120276758201120281
:1002B000769000140201EBAA82AB83ACF07402B515
:1002C00026047DC080027D808D82C002C003C004F0
:1002D0001202769000051201EBD004D003D0027D0B
:1002E000007E00ED2AFFEE3BF88C018F8288838927
:1002F000F0120E7FFF60208F82C002C003C004C0D6
:1003000005C006120267D006D005D004D003D00283
:100310000DBD00CF0E80CC3000248D028E03C3EAC9
:100320009410EB648094805015758220C002C00345
:10033000120267D003D0020ABA00E30B80E022AABF
:1003400082AB83ACF07402B527047DC080027D804F
:100350008D82C002C003C004120276900005120113
:10036000EBD004D003D002E4F528F529FFF8EF2AFA
:10037000F9E83BFD8C0689828D838EF0120E7FF9A1
:10038000600F0528E4B5280205290FBF00E00880AA
:10039000DDE52824FFFDE52934FFFEEE20E731ED01
:1003A0002AFFEE3BF88C018F82888389F0120E7F42
:1003B000F582C002C003C004C005C006120267D0A7
:1003C00006D005D004D003D0021DBDFF011E80CB96
:1003D0003001248D028E03C3EA9410EB6480948074
:1003E0005015758220C002C003120267D003D002EC
:1003F0000ABA00E30B80E02285822C85832D85F0EC
:100400002EE4F52FF530E52A24FFFFE52B34FFF825
:1004100079007A00C3E99FEA648088F063F08095F0
:10042000F05059C002C007C000C0011210CBAB820F
:10043000D001D000D007D002BB0A028003BB0D1D43
:10044000E52F252CFCE530352DFDAE2E8C828D83DD
:100450008EF0E412110B852F8285308322E9252C42
:10046000FCEA352DFDAE2E8C828D838EF0EB1211C1
:100470000B09B900010A892F8A308098E52F252CB5
:10048000FAE530352DFBAC2E8A828B838CF0E4129A
:10049000110B852A82852B8322AA82851CF005F008
:1004A0007401800225E0D5F0FBFB75A720BA00029D
:1004B000800ABA0102800FBA021E8014EBF4FA52CD
:1004C000F1EB42D48012EBF4FA52F2EB42D5800801
:1004D000EBF4FA52F3EB42CC75A700228582BBD233
:1004E000EC20ECFDD2EC20ECFD85BD8285BE8322A4
:1004F0001204DC120E9BAA82AB83ACF0FDC002C0DA
:1005000003C004C005906C8B75F0537440120F58F3
:10051000AA82AB83ACF0FDE58124FCF581E4C0E068
:1005200074FCC0E0747FC0E07446C0E08A828B83B4
:100530008CF0ED121169AA82AB83ACF0FDE5812449
:10054000FCF5818A828B838CF0ED2275A70075B251
:100550008075BCF875B91E75E80075DF3F75B3008E
:10056000D2EF22758A00758C00C28DE4F522F52346
:10057000F524F52520A0FD30A0FDD28C30A0191067
:100580008D0280F80522E4B522F20523B523ED059E
:1005900024B524E8052580E420A019108D0280F8F8
:1005A0000522E4B522F20523B523ED0524B524E8A0
:1005B000052580E4C28C8522828523838524F0E58D
:1005C000251210DEAA82AB83ACF0FDC002C003C0CE
:1005D00004C00590000075F0807447120F58AA827D
:1005E000AB83ACF0FDE58124FCF581858C82C002F3
:1005F000C003C004C005120FFBAE82AF83A8F0F9A0
:10060000C006C007C000C00190000075F0807443B0
:10061000120F58AE82AF83A8F0F9E58124FCF58172
:10062000D005D004D003D002C006C007C000C0016E
:100630008A828B838CF0ED121006AA82AB83ACF019
:10064000FDE58124FCF581AE8A7F008E828F83C018
:1006500002C003C004C00512115CAE82AF83A8F0D3
:10066000F9D005D004D003D002C006C007C000C036
:10067000018A828B838CF0ED121006AA82AB83ACC8
:10068000F0FDE58124FCF581C002C003C004C00573
:1006900090C33E75F02E7439120F58AA82AB83AC0A
:1006A000F0FDE58124FCF5818A828B838CF0ED22BC
:1006B000758A00758C00C28DE4F522F523F524F5CA
:1006C000252097FD75825A1201C12097FD3097FDB4
:1006D00075825A1201C13097FDD28C309719108D56
:1006E0000280F80522E4B522F20523B523ED0524A6
:1006F000B524E8052580E4209719108D0280F805BF
:1007000022E4B522F20523B523ED0524B524E8053E
:100710002580E4C28C8522828523838524F0E5250B
:100720001210DEAA82AB83ACF0FDC002C003C0048D
:10073000C00590000075F0807447120F58AA82AB74
:1007400083ACF0FDE58124FCF581858C82C002C07C
:1007500003C004C005120FFBAE82AF83A8F0F9C03E
:1007600006C007C000C00190000075F080744312FD
:100770000F58AE82AF83A8F0F9E58124FCF581D053
:1007800005D004D003D002C006C007C000C0018A53
:10079000828B838CF0ED121006AA82AB83ACF0FD45
:1007A000E58124FCF581AE8A7F008E828F83C002B2
:1007B000C003C004C00512115CAE82AF83A8F0F97B
:1007C000D005D004D003D002C006C007C000C001CD
:1007D0008A828B838CF0ED121006AA82AB83ACF078
:1007E000FDE58124FCF581C002C003C004C0059072
:1007F000C33E75F02E7439120F58AA82AB83ACF049
:10080000FDE58124FCF5818A828B838CF0ED22AAA0
:1008100082AB83ACF0FDC002C003C004C005C002BF
:10082000C003C004C00590000075F07A7444120F34
:1008300058AE82AF83A8F0F9E58124FCF581E4C0CD
:10084000E0C0E07480C0E07440C0E08E828F838896
:10085000F0E9121169AE82AF83A8F0F9E58124FCBA
:10086000F5818E828F8388F0E9120F24AE82AF83E8
:10087000D005D004D003D002C006C007E4C0E0C059
:10088000E07480C0E07440C0E08A828B838CF0ED1D
:10089000121169AA82AB83ACF0FDE58124FCF581DD
:1008A0008A828B838CF0ED120F24AA82AB83D0074F
:1008B000D00620A0FD30A0FD8A828B83C006C00731
:1008C0001201EBD007D0068E821201C175820B0295
:1008D00004F0AA82AB83ACF0FDC002C003C004C028
:1008E00005C002C003C004C00590000075F07A7412
:1008F00044120F58AE82AF83A8F0F9E58124FCF5CD
:1009000081E4C0E0C0E07480C0E07440C0E08E824A
:100910008F8388F0E9121169AE82AF83A8F0F9E500
:100920008124FCF5818E828F8388F0E9120F24AE3A
:1009300082AF83D005D004D003D002C006C007E444
:10094000C0E0C0E07480C0E07440C0E08A828B8365
:100950008CF0ED121169AA82AB83ACF0FDE5812425
:10096000FCF5818A828B838CF0ED120F24AA82AB76
:1009700083D007D0062097FD3097FD8A828B83C0F5
:1009800006C0071201EBD007D0068E821201C17596
:10099000820C0204F085823185833285F033F53490
:1009A000E4FEFFF535F536F58AF58CC28DE4F522C7
:1009B000F523F524F525EE4F700C20A0F92097F6CD
:1009C0007E017F0080F0E5354536701430A0067555
:1009D0003501E4F5363097EE7535FF7536FF80E664
:1009E0007401B53506E4B536028002801ED28C2033
:1009F0009741108D0280F80522E4B522F20523B557
:100A000023ED0524B524E8052580E474FFB53523DE
:100A100074FFB5361ED28C20A019108D0280F80507
:100A200022E4B522F20523B523ED0524B524E8051B
:100A30002580E4C28C8522828523838524F0E525E8
:100A40001210DEAE82AF83A8F0F9C006C007C00066
:100A5000C00190000075F0807447120F58AE82AF4D
:100A600083A8F0F9E58124FCF581858C82C006C05D
:100A700007C000C001120FFBAA82AB83ACF0FDC01F
:100A800002C003C004C00590000075F080744312DA
:100A90000F58AA82AB83ACF0FDE58124FCF581D030
:100AA00001D000D007D006C002C003C004C0058E2C
:100AB000828F8388F0E9121006AA82AB83ACF0FD26
:100AC000E58124FCF581AE8A7F008E828F83C0028F
:100AD000C003C004C00512115CAE82AF83A8F0F958
:100AE000D005D004D003D002C006C007C000C001AA
:100AF0008A828B838CF0ED121006AA82AB83ACF055
:100B0000FDE58124FCF581C002C003C004C005904E
:100B1000C33E75F02E7439120F58AA82AB83ACF025
:100B2000FDE58124FCF581C002C003C004C005902E
:100B3000000075F0B47443120F58AA82AB83ACF076
:100B4000FDE58124FCF581C031C032C033C0348A58
:100B5000828B838CF0ED121169AA82AB83ACF0FD1D
:100B6000E58124FCF5818A828B838CF0ED020F24D1
:100B70005389F0438901C28C2285823985833A8565
:100B8000F03B120E7FF53CA3120E7FF53DA3120E33
:100B90007FF53EA3120E7FF53F79007A00C3E995F9
:100BA00037EA64808538F063F08095F050768903E9
:100BB000EACB25E0CB33CB25E0CB33FCEB2539FB6F
:100BC000EC353AFCAD3B8B828C838DF0120E7FFBB3
:100BD000A3120E7FFCA3120E7FFDA3120E7FFEC098
:100BE00002C003C004C005C006C001C03CC03DC077
:100BF0003EC03F8B828C838DF0EE120EA7AF82E554
:100C00008124FCF581D001D006D005D004D003D0DA
:100C100002EF60088B3C8C3D8D3E8E3F09B9000190
:100C20000A020B9D853C82853D83853EF0E53F228F
:100C3000E4F552F553F554120B701202859001F44D
:100C40001201EB7474C0E07400C0E07480C0E01264
:100C500010741581158115817403C0E07401C0E022
:100C60007480C0E074F7C0E07400C0E07480C0E03D
:100C700074A6C0E07400C0E07480C0E07479C0E085
:100C80007400C0E07480C0E0121074E58124F4F5B3
:100C900081751C05758201120499751C0675820107
:100CA00012049912054B1205638582488583498594
:100CB000F04AF54B1206B085824C85834D85F04E87
:100CC000F54F854882854983854AF0E54B12080F28
:100CD000AA82AB83ACF0F974F3C0E07404C0E07492
:100CE000B5C0E0743FC0E08A828B838CF0E91211BA
:100CF0006985824085834185F042F543E58124FC86
:100D0000F581854C82854D83854EF0E54F1208D2E2
:100D1000AA82AB83ACF0F974F3C0E07404C0E07451
:100D2000B5C0E0743FC0E08A828B838CF0E9121179
:100D30006985824485834585F046F547E58124FC35
:100D4000F58190555575F08574411209958582504D
:100D50008583517474C0E07400C0E07480C0E012F8
:100D60001074158115811581C050C051C04CC04D03
:100D7000C04EC04FC048C049C04AC04BC044C04527
:100D8000C046C047C040C041C042C043740CC0E030
:100D90007401C0E07480C0E0121074E58124EBF5AA
:100DA00081854C82854D83854EF0E54F1208D2AC8B
:100DB00082A983ADF0FE854882854983854AF0E5A6
:100DC0004BC004C005C006C00112080FAF82A88343
:100DD000AAF0FBD001D006D005D004C050C051C04D
:100DE00004C001C005C006C007C000C002C0037433
:100DF0005BC0E07401C0E07480C0E0121074E58153
:100E000024F3F5817A007B00E55045516057EA25CF
:100E100052FCEB3553FDAE54751C0AE4F51D8550AC
:100E200082855183C002C003C004C005C0061210F1
:100E300095AF82D006D005D00474302F8C828D837C
:100E40008EF012110B751C0AE4F51D855082855138
:100E500083121124858250858351D003D0020ABAAF
:100E600000A60B80A3752701D2018552828553838A
:100E70008554F012033F9001F41201EB020CA620FE
:100E8000F71430F6148883A88220F507E6A8837546
:100E9000830022E280F7E49322E022E4AC83AB8279
:100EA000FAF9748E0212BAFFA88118181212E2D24F
:100EB000D133E6400730E70B7582012220E7067543
:100EC000820022C2D11212C4E97003F5822230D10D
:100ED00001B3E433F58222E51C451D60467A01E545
:100EE0001C25E0F51CE51D334012F51DE582951C1F
:100EF000E583951D40030A80E6C3E51D13F51DE556
:100F00001C13F51CC3E582951CF5F0E583951D4087
:100F100005F58385F082C3E51D13F51DE51C13F56A
:100F20001CDAE12212130D700AE582458345F07048
:100F30000122E430D112F4700BE5F0F47006E58381
:100F400030E7012290800022700AE5F07006E58308
:100F500020E70122907FFF221213EABC0003021354
:100F600089EF60FA30D502B2D1E583B4FF030213F2
:100F70009FE582B4FF0302139F258340072482402C
:100F80000B021389248314500302139FF582EA8D08
:100F9000F0A4A8F0EA8EF0A428F8E435F0F9EB8D7F
:100FA000F0A428E935F0F9E433CA8FF0A429F9EA6E
:100FB00035F0FAEBF88EF0A429F9EA35F0FAE433CB
:100FC000FBEC8DF0A429F9EA35F0FAE43BFBE88F5D
:100FD000F0A42AFAEB35F0FBE433CCFD8EF0A42A22
:100FE000FAEB35F0FBE43CFCED8FF0A42BFBEC3589
:100FF000F0FC20E7031213B7021368E4AC82FBFA9B
:10100000F974860212BA1213EA7900E583B58202F6
:10101000800D5003121418E583C39582121432E533
:10102000D0C465D020E117EA2DFAEB3EFBEC3FFC83
:1010300050097401121432EC4480FC021368C3EAB4
:101040009DFAEB9EFBEC9FFC500FC3E499F9E49AE8
:10105000FAE49BFBE49CFCB2D11213B702136802C2
:101060001E0185821885831985F01A85091B901049
:101070005F021854C008858108E50824FBF51BE5CC
:101080000824FBF8861808861908861A90105F1243
:101090001854D00822C2D5E58330E70DD2D5E4C379
:1010A0009582F582E49583F583E51D30E70BE4C373
:1010B000951CF51CE4951DF51D120ED730D50BE4DB
:1010C000C39582F582E49583F5832210980280FB14
:1010D000AA998A82C002121E01D0028A8222FCAB27
:1010E000F0AA83A982749EF582C2D1EC30E716D2B1
:1010F000D1E9F42401F9EAF43400FAEBF43400FB0A
:10110000ECF43400FC1213B702136820F71030F629
:10111000118883A88220F507F6A88375830022F240
:1011200080F7F022C2D5E58330E70DD2D5E4C39530
:1011300082F582E49583F583E51D30E70DB2D5E4B1
:10114000C3951CF51CE4951DF51D12128830D50BB6
:10115000E4C39582F582E49583F58322AC83AB8268
:101160007A007900748E0210E71213EA30D502B2C9
:10117000D1BF0009BC00030213AC02139FBC0003E3
:10118000021389E583B4FF0BE582B4FF030213ACBD
:10119000021389E582B4FF0302139FC395835007AE
:1011A000247F400B021389248014500302139FC034
:1011B000E0E4CCCBCAF98D1C8E1D8F1EEF54F0C419
:1011C000F51F758306851FF0EB84F582E9C4F9EA03
:1011D000C4FAEBC4FBEC540FC47803D6FC18EBD66E
:1011E000FB18EAD6FA8582F0EDA4A8F0FD8582F01E
:1011F000EEA428FEE435F0F88582F0EFA428FFE4A1
:1012000035F0F8E99DF9EA9EFAEB9FFBEC98FCAD0E
:101210001CAE1DAF1E30E7101582E92DF9EA3EFA2B
:10122000EB3FFBE43CFC80EDC082D58398C3E933FF
:10123000F9EA33FAEB33FBEC33FCC3E99DEA9EEBAE
:101240009FEC9400B3E413F9D002D0E0C44AFAD082
:1012500003D0E0C44BFBD004D0E0F5F0540FC44CF5
:10126000FCD082158230F40FD3EC13FCEB13FBEAB5
:1012700013FAE913F90582E930E70A74012AFAE45E
:101280003BFBE43CFC0213807A10E4FBFCE5822586
:10129000E0F582E58333F583EB33FBEC33FCEB9530
:1012A0001CF5F0EC951D4006FCABF0438201DADD45
:1012B00022FCABF0AA83A982749EC2D1F5821213DC
:1012C000B70213687901AA82E68F82B5821318E605
:1012D000B5F00E18E6B5830918E68A82B582027960
:1012E0000022B4800FE5F0700AE5837006E5827095
:1012F000027F00EFB6801518B6001018B6000B1864
:10130000B6000608080876002208080822121E16F1
:10131000C3749E95824039790012143230D126E987
:10132000F42401F582EAF43400F583EBF43400F59B
:10133000F0ECF43400700AE582458345F070012238
:10134000E430E70F22EC20E71489828A838BF022B5
:1013500030D10AE4F582F583F5F074802274FFF54C
:1013600082F583F5F0747F22B98003EA13B340104D
:10137000EA2401FAE43BFBE43CFC50047C80058257
:10138000BC000EBB000BBA0008E4F5F0F583F58253
:1013900022A2D1E582138CF092F78B838A8222E419
:1013A000F583F58275F080F4A2D11322E4F583F57C
:1013B0008275F0C0747F227804EC7011E58224F805
:1013C000500AF582E4C9CACBFCD8EF22EC7820059C
:1013D0008220E713D5820122C3E933F9EA33FAEB1D
:1013E00033FBEC33FCD8EA158222AA82AB83A2F746
:1013F0003392D16002D2F7F582ACF0E58124F9F89E
:10140000E6FD08E6FE0886F008E6A2F73392D5600E
:1014100002D2F7F583AFF022E582C583F582A2D12F
:1014200033A2D592D11392D5ECCFFCEBCEFBEACD13
:10143000FA226040F82582500274FFF582E824F811
:10144000501ECCCBCAF9E4CC24F85014CBCAF9E432
:10145000CB24F8500BCAF9E4CA24F85003790022CF
:1014600024086010F8C3EC13FCEB13FBEA13FAE951
:1014700013F9D8F122AA827486C0E07414C0E0C0C7
:101480000AC00B8A82220511E4B51102051222AAB4
:101490008274302AFA24C6500A74072AFA300203EA
:1014A0004302208A82021475E582FAC4540FF58241
:1014B000C00212148FD002740F5AF58202148FAA40
:1014C0000CAB0DAC0EAD0FAE10751720EE2EFEED71
:1014D000235401FF4206EA2AFAEB33FBEC33FCED1E
:1014E00033FDC3EE95134008EEC39513FE4302018E
:1014F000D517D98A0C8B0D8C0E8D0F8E102278612A
:10150000E624D075F00AA4FA7862E624D02AFA78A4
:10151000608603BB2D04C3E49AFA751301C3E46427
:10152000808AF063F08095F050297517038A037460
:10153000F62517401C0513E517142455F8E5172464
:1015400055F98704A604772E1BEBFA600405178073
:10155000DE8B02EA30E70D785686037857A60378CB
:1015600056762E0AE515600AE51504FB2513F513DA
:101570008005300D02051378558603E4BB2D010468
:10158000FB7006200803300902051330060302161B
:1015900045300757EB600C75822DC002121475D0D0
:1015A00002801C30080C75822BC002121475D00208
:1015B000800D30090A758220C002121475D002789D
:1015C000568604BC2E0C758230C002121475D002EF
:1015D0001514AC141514C3E5139C40030216897549
:1015E0008230C002121475D00280E7AC141514C307
:1015F000E5139C500C758220C002121475D0028035
:10160000EA78558604BC2D0C75822DC00212147523
:10161000D002801C30080C75822BC002121475D0C9
:1016200002800D30090A758220C002121475D002A2
:1016300078568604BC2E52758230C002121475D0C2
:101640000215148044EB600E75822DC002121475D1
:10165000D0021514802030080E75822BC00212149F
:1016600075D0021514800F30090C758220C002124B
:101670001475D002151478568603BB2E0C75823073
:10168000C002121475D0021514751701C20FE517A8
:101690002455F88603BB4503021746BB2E348A0344
:1016A000C3E464808BF063F08095F0500F75823056
:1016B000C003121475D0031B8B0280E48B02D20F7F
:1016C000E5157038200D0302174675822E12147529
:1016D0008074300F278A03EB30E71FC3E4648085F2
:1016E00015F063F08095F0500C758230C003121431
:1016F00075D00315150B8B0280DD8B02300F0EC3E6
:10170000E464808515F063F08095F05021E517249E
:1017100055F886038B82C002121475D002300F0E6A
:10172000E5172455F88603BB2E0280021515151403
:10173000C3E464808515F063F08095F04003200FCA
:1017400005051702168EC3E464808515F063F080EA
:1017500095F0500A758230121475151580E8300620
:101760000FAA141514EA600875822012147580F10E
:1017700022E5157003300D0D74072515FAE514C325
:101780009AF5148006E51424FAF5147517007855B7
:101790008602BA2B0F20080C785576202009057593
:1017A00017010514200619AA14C3E464808AF063A3
:1017B000F08095F0500A758220121475151480E798
:1017C000C20FE5172455F88602BA00028069BA45AF
:1017D0001F3002027665C3E464808515F063F080F3
:1017E00095F0500A758230121475151580E8D20FE5
:1017F000C3E5179402E433FA7014EA700EC3E4648C
:10180000808515F063F08095F04003300F16E517E2
:101810002455F886028A82121475E51724FD5012A9
:101820001515800E7402B51709300D0675822E123B
:10183000147505170217C2300619AA14C3E4648090
:101840008AF063F08095F0500A75822012147515A5
:101850001480E72285820A85830BE4F511F512AA2C
:1018600018AB19AC1A8A828B838CF0120E7FFD7430
:10187000012AF518E43BF5198C1AEDFA7003021DE4
:10188000FABA25028003021DF2C206C207C208C2CC
:1018900009C20AC20BC20CC20DC203C204C2057542
:1018A00013007514007515FFAB18AC19AD1A8B82B7
:1018B0008C838DF0120E7FFAA3AB82AC838B188CD5
:1018C000198D1ABA25078A8212147580928A06BE6B
:1018D0003000402E8A06EE24C6402774FFB515134B
:1018E000E51475F00AA4FEEA24D02EF51470BFD2D8
:1018F0000780BBE51575F00AA4FEEA24D02EF51585
:1019000080ACBA2E0A74FFB515A4751500809F8AA5
:1019100006BE6100400E8A06EE248540075302DFB2
:10192000D2028002C202BA20028075BA23030219D1
:10193000AFBA2A030219B4BA2B02805FBA2D028013
:1019400055BA4202805FBA43030219F9BA4403024E
:101950001B34BA4503021B4EBA4603021B4ABA4760
:1019600003021B52BA4903021B34BA4C02803BBA31
:101970004E03021B56BA4F03021B3BBA5003021A16
:10198000CDBA5303021A1DBA5503021B40BA5803BD
:10199000021B45021B80D2060218AED2080218AE06
:1019A000D2090218AED20B0218AED20C0218AED277
:1019B0000D0218AE74FFB51520300B0BE51B14F8A3
:1019C000881B86140218AEE51B24FEF8881B8606C9
:1019D000088607188E140218AE300B0BE51B14F89E
:1019E000881B86150218AEE51B24FEF8881B8606A8
:1019F000088607188E150218AE300B0AE51B14F87E
:101A0000881B8602800FE51B24FEF8881B860308CE
:101A10008604188B028A82121475021B85E51B242A
:101A2000FDF8881B860308860408860518188B0CA9
:101A30008C0D8D0E8B828C838DF0121F47AB82AC88
:101A4000838B1674FFB5150385161520061DC3E597
:101A50001695145016E514C39516F514AB14151409
:101A6000EB600875822012147580F1850C82850D5B
:101A700083850EF0120E7FFBFA6029AB151515C396
:101A8000E464808BF063F08095F050188A82121421
:101A900075AB0CAC0DAD0E0BBB00010C8B0C8C0DA3
:101AA0008D0E80C7200603021B85C3E516951440E2
:101AB00003021B85E514C39516F514AB141514EB3E
:101AC0007003021B8575822012147580EEE51B24BD
:101AD000FDF8881B860308860408860518188B0CF9
:101AE0008C0D8D0EE50EFB30E7047A438013EB542A
:101AF0006060047A50800AEB30E6047A4980027A0A
:101B0000588A82C00212147575823A121475758251
:101B100030121475758278121475D002BA49028099
:101B20000BBA50028006850D821214A8850C821211
:101B300014A88051D20A75130A804A75130880458B
:101B400075130A8040751310803BD2038037D2048E
:101B50008033D205802FE51B24FDF8881B860308FF
:101B6000860408860518188B0C8C0D8D0E8B828CC4
:101B7000838DF0E51112110BA3E51212110B8005F4
:101B80008A82121475200306200403300570E51BB9
:101B900024FCF8881B860308860408860508860648
:101BA0001818188B0C8C0D8D0E8E0FE50CE50DE5BD
:101BB0000EE50F8B828C838DF0EE121E2874FFB51C
:101BC0001503751506300527747F550FFB8B10E53F
:101BD00010EB2BFB8B10E50E30E70674014510F57A
:101BE00010E51024684006749925104002D2043094
:101BF000040612177102185F1214FE02185FE51333
:101C0000700302185F7B5A300B2BE51B14F8881BFE
:101C1000E6FC3395E0FDFEFF8C0C8D0D8E0E8F0FD4
:101C2000200A5EAC0C7D007E007F008C0C8D0D8E3A
:101C30000E8F0F804C300C1FE51B24FCF8881B8690
:101C4000040886050886060886071818188C0C8D67
:101C50000D8E0E8F0F802AE51B24FEF8881B86044C
:101C600008860518ED3395E0FEFF8C0C8D0D8E0E69
:101C70008F0F200A0CAC0CAD0D7E007F008E0E8FF6
:101C80000F300D43E50C450D450E450F60397408C6
:101C9000B5130C758230C003121475D003802874FC
:101CA00010B51323758230C003121475D0033002AF
:101CB0000C758278C003121475D003800A7582589F
:101CC000C003121475D003300A25AC0CAD0DAE0E56
:101CD000E50FFF30E717C3E49CFCE49DFDE49EFEA6
:101CE000E49FFF8C0C8D0D8E0E8F0F8002C20A7543
:101CF0001600D20E8B00751000C0001214BFD00069
:101D0000200E0DE510C4FCE6FD4CF6188803800299
:101D1000A6100516B20EE50C450D450E450F70D602
:101D20008803E514700375140120071A200617E5CF
:101D30001604FCC39514500E758220C0031214754E
:101D4000D003151480E9300A0E75822DC0031214D9
:101D500075D00315148024E516602030080E7582B6
:101D60002BC003121475D0031514800F30090C75A5
:101D70008220C003121475D003151420061EAC1463
:101D80001514C3E5169C50273007047C3080027C74
:101D9000208C82C003121475D00380E2C3E516952F
:101DA000145009E514C39516F51480037514008BBF
:101DB00000AB161516EB6022B20E200E0A08E6C420
:101DC000540FFB8B1080078603740F5BF510851092
:101DD00082C00012148FD00080D720060302185F43
:101DE000AB141514EB700302185F75822012147582
:101DF00080EE8A8212147502185F85118285128323
:101E000022AA82BA0A0810990280FB75990D1099CE
:101E10000280FB8A9922AA82AB83A2F73392D16017
:101E200002D2F7F582ACF022C0E0F8458245834546
:101E3000F07009F5F0FBFCFDFE021EF6E823A2F7A8
:101E400092E0F8A982AA83D2F7ABF07C007E07C3A8
:101E5000749798404074FF2EFE740A89F0A4F985A7
:101E6000F082740A8AF0A4FA85F083740A8BF0A4D5
:101E7000FB740529F9EA3582FAEB3583FB740035EA
:101E8000F0FCC3EC13FCEB13FBEA13FAE913F908BB
:101E9000EC70EF80BAE8C3947FF88B838EF0E4FB9C
:101EA000FCFDFEFF08C3E933F9EA33FAE58333F5B5
:101EB00083EB3BD4FBEC3CD4FCED3DD4FDEE3ED4B7
:101EC000FEEF3FD4FF602D05F074052BD4FBE43CFE
:101ED000D4FCE43DD4FDE43ED4FEE43FD4FF75825F
:101EE00004C3EF13FFEE13FEED13FDEC13FCEB1335
:101EF000FBD582EDD8AF7855D0E020E704762B8073
:101F000002762D087906E7C4540F4430F608B90666
:101F100003762E08E7540F4430F60819B902E77625
:101F20004508E5F020E704762B8004762DF40408BC
:101F300075F00A844430F608E5F04430F608E4F61B
:101F400090005575F04022AA82AB83ACF07D007EF4
:101F5000008A828B838CF0120E7FFFA3AA82AB8350
:101F6000EF60070DBD00EA0E80E78D828E832200B0
:00000001FF
