:1000000002000375816B12017EE582600302006FBE
:10001000780079007A007B007C007D00EC4D601C4C
:1000200088828983E493A3A882A9838A828B83F040
:10003000A3AA82AB831CBCFFE31D80E07582007520
:1000400083007C007D00EC4D600AE4F0A31CBCFF43
:10005000F51D80F27582007583007C007D00EC4DFB
:10006000600AE4F0A31CBCFFF51D80F212017D12B2
:100070000C5E80FE1B5B324A004144432074657372
:10008000742070726F6772616D0A46696C653A2000
:1000900025730A436F6D70696C65643A2025732C73
:1000A0002025730A0A00433A5C55736572735C63DA
:1000B0006172736F5C446F63756D656E74735C31F0
:1000C0002E205363686F6F6C5C302E205370726902
:1000D0006E6720323031385C456C656320323932CE
:1000E0005C6C6162355C6D61675F70686173655FF0
:1000F00045464D382E63004D617220203820323045
:1001000031380031333A35353A35310056405031C7
:100110002E353D25372E3566562C20564050312E33
:10012000363D25372E3566562C20506572696F6432
:100130005F7265663D256C662C20506572696F6440
:100140005F746573743D256C662C207068617365FF
:1001500020646966663D2569200D00256C660D0AE0
:1001600020256C660D0A2025690D0A005672202094
:10017000205674202020506861736520002275A7E6
:10018000007597DE7597AD43FF8075EF0275A71078
:1001900075C12075A70075A90075A900E5A930E70C
:1001A000FB75A90375A903E5A930E7FB43A4107506
:1001B000E10175E20075E340759810858E8E758DAE
:1001C000E6858D8B53890F438920D28ED299758213
:1001D0000022AA82438E407592B87593FF8592944F
:1001E0008593957591047B00C3EB9A500BE5913094
:1001F000E7FB53917F0B80F075910022AA82AB83BD
:100200007C007D00C3EC9AED9B502B7E00BE040069
:10021000501D7582FAC002C003C004C005C006129A
:1002200001D2D006D005D004D003D0020E80DE0C5F
:10023000BC00D10D80CE22D2A57582281201D2C277
:10024000A522AA828AE0A2E792A1A2E692A2A2E552
:1002500092A3A2E492A4C00212023775822812016E
:10026000D2D0028AE0A2E392A1A2E292A2A2E192FB
:10027000A3A2E092A4020237AA82D2A68A82120224
:10028000429000020201FCAA82C2A68A82120242A5
:100290009000050201FCC2A59000141201FC7582B9
:1002A00033120287758233120287758232120287F7
:1002B00075822812028775820C12028775820112DC
:1002C00002879000140201FCAA82AB83ACF0740296
:1002D000B526047DC080027D808D82C002C003C02F
:1002E000041202879000051201FCD004D003D00252
:1002F0007D007E00ED2AFFEE3BF88C018F82888323
:1003000089F01210F2FF60208F82C002C003C00487
:10031000C005C006120278D006D005D004D003D0A4
:10032000020DBD00CF0E80CC3000248D028E03C3A1
:10033000EA9410EB648094805015758220C002C04E
:1003400003120278D003D0020ABA00E30B80E02245
:10035000AA82AB83ACF07402B527047DC080027D15
:10036000808D82C002C003C0041202879000051273
:1003700001FCD004D003D002E4F528F529FFF8EF02
:100380002AF9E83BFD8C0689828D838EF01210F2EB
:10039000F9600F0528E4B5280205290FBF00E00821
:1003A00080DDE52824FFFDE52934FFFEEE20E7315E
:1003B000ED2AFFEE3BF88C018F82888389F01210C2
:1003C000F2F582C002C003C004C005C00612027864
:1003D000D006D005D004D003D0021DBDFF011E8081
:1003E000CB3001248D028E03C3EA9410EB64809419
:1003F000805015758220C002C003120278D003D04D
:10040000020ABA00E30B80E02285822C85832D85C9
:10041000F02EE4F52FF530E52A24FFFFE52B34FF1D
:10042000F879007A00C3E99FEA648088F063F0807D
:1004300095F05059C002C007C000C00112133EAB76
:1004400082D001D000D007D002BB0A028003BB0DCE
:100450001DE52F252CFCE530352DFDAE2E8C828D33
:10046000838EF0E412137E852F8285308322E92566
:100470002CFCEA352DFDAE2E8C828D838EF0EB1296
:10048000137E09B900010A892F8A308098E52F254B
:100490002CFAE530352DFBAC2E8A828B838CF0E470
:1004A00012137E852A82852B8322AA82851CF00561
:1004B000F07401800225E0D5F0FBFB75A720BA009F
:1004C00002800ABA0102800FBA021E8014EBF4FA0D
:1004D00052F1EB42D48012EBF4FA52F2EB42D580A7
:1004E00008EBF4FA52F3EB42CC75A700228582BBED
:1004F000D2EC20ECFDD2EC20ECFD85BD8285BE83E4
:10050000221204ED12110EAA82AB83ACF0FDC002E0
:10051000C003C004C005906C8B75F0537440121179
:10052000CBAA82AB83ACF0FDE58124FCF581E4C06D
:10053000E074FCC0E0747FC0E07446C0E08A828B47
:10054000838CF0ED1213DCAA82AB83ACF0FDE58165
:1005500024FCF5818A828B838CF0ED2275A70075CF
:10056000B28075BCF875B91E75E80075DF3F75B3CC
:1005700000D2EF22758A00758C00C28DE4F522F559
:1005800023F524F52520A0FD30A0FDD28C30A01944
:10059000108D0280F80522E4B522F20523B523ED83
:1005A0000524B524E8052580E420A019108D0280DB
:1005B000F80522E4B522F20523B523ED0524B52480
:1005C000E8052580E4C28C8522828523838524F07A
:1005D000E525121351AA82AB83ACF0FDC002C00323
:1005E000C004C00590000075F08074471211CBAABA
:1005F00082AB83ACF0FDE58124FCF581858C82C063
:1006000002C003C004C00512126EAE82AF83A8F010
:10061000F9C006C007C000C00190000075F08074EA
:10062000431211CBAE82AF83A8F0F9E58124FCF52B
:1006300081D005D004D003D002C006C007C000C0DE
:10064000018A828B838CF0ED121279AA82AB83AC83
:10065000F0FDE58124FCF581AE8A7F008E828F83D8
:10066000C002C003C004C0051213CFAE82AF83A87E
:10067000F0F9D005D004D003D002C006C007C000F6
:10068000C0018A828B838CF0ED121279AA82AB832F
:10069000ACF0FDE58124FCF581C002C003C004C0BC
:1006A0000590C33E75F02E74391211CBAA82AB832C
:1006B000ACF0FDE58124FCF5818A828B838CF0ED22
:1006C00022758A00758C00C28DE4F522F523F5248D
:1006D000F5252097FD75825A1201D22097FD30979B
:1006E000FD75825A1201D23097FDD28C30971910C5
:1006F0008D0280F80522E4B522F20523B523ED052D
:1007000024B524E8052580E4209719108D0280F88F
:100710000522E4B522F20523B523ED0524B524E82E
:10072000052580E4C28C8522828523838524F0E51B
:1007300025121351AA82AB83ACF0FDC002C003C0E6
:1007400004C00590000075F08074471211CBAA8296
:10075000AB83ACF0FDE58124FCF581858C82C00281
:10076000C003C004C00512126EAE82AF83A8F0F9B8
:10077000C006C007C000C00190000075F08074433F
:100780001211CBAE82AF83A8F0F9E58124FCF5818C
:10079000D005D004D003D002C006C007C000C001FD
:1007A0008A828B838CF0ED121279AA82AB83ACF033
:1007B000FDE58124FCF581AE8A7F008E828F83C0A7
:1007C00002C003C004C0051213CFAE82AF83A8F0ED
:1007D000F9D005D004D003D002C006C007C000C0C5
:1007E000018A828B838CF0ED121279AA82AB83ACE2
:1007F000F0FDE58124FCF581C002C003C004C00502
:1008000090C33E75F02E74391211CBAA82AB83AC23
:10081000F0FDE58124FCF5818A828B838CF0ED224A
:10082000AA82AB83ACF0FDC002C003C004C005C007
:1008300002C003C004C00590000075F07A74441231
:1008400011CBAE82AF83A8F0F9E58124FCF581E4F9
:10085000C0E0C0E07480C0E07440C0E08E828F834E
:1008600088F0E91213DCAE82AF83A8F0F9E58124A9
:10087000FCF5818E828F8388F0E9121197AE82AFEA
:1008800083D005D004D003D002C006C007E4C0E086
:10089000C0E07480C0E07440C0E08A828B838CF03A
:1008A000ED1213DCAA82AB83ACF0FDE58124FCF5EC
:1008B000818A828B838CF0ED121197AA82AB83D050
:1008C00007D00620A0FD30A0FD8A828B83C006C021
:1008D000071201FCD007D0068E821201D275820B5E
:1008E000020501AA82AB83ACF0FDC002C003C004C4
:1008F000C005C002C003C004C00590000075F07AB6
:1009000074441211CBAE82AF83A8F0F9E58124FCC8
:10091000F581E4C0E0C0E07480C0E07440C0E08EC7
:10092000828F8388F0E91213DCAE82AF83A8F0F9DE
:10093000E58124FCF5818E828F8388F0E91211977E
:10094000AE82AF83D005D004D003D002C006C0076A
:10095000E4C0E0C0E07480C0E07440C0E08A828BF4
:10096000838CF0ED1213DCAA82AB83ACF0FDE58141
:1009700024FCF5818A828B838CF0ED121197AA8278
:10098000AB83D007D0062097FD3097FD8A828B83FA
:10099000C006C0071201FCD007D0068E821201D219
:1009A00075820C02050185823185833285F033F52D
:1009B00034E4FEFFF535F536F58AF58CC28DE4F5A5
:1009C00022F523F524F525EE4F700C20A0F9209791
:1009D000F67E017F0080F0E5354536701430A006C4
:1009E000753501E4F5363097EE7535FF7536FF80C5
:1009F000E67401B53506E4B536028002801ED28C5D
:100A0000209741108D0280F80522E4B522F20523DB
:100A1000B523ED0524B524E8052580E474FFB5353C
:100A20002374FFB5361ED28C20A019108D0280F8D9
:100A30000522E4B522F20523B523ED0524B524E80B
:100A4000052580E4C28C8522828523838524F0E5F8
:100A500025121351AE82AF83A8F0F9C006C007C0BB
:100A600000C00190000075F08074471211CBAE8277
:100A7000AF83A8F0F9E58124FCF581858C82C0065E
:100A8000C007C000C00112126EAA82AB83ACF0FD99
:100A9000C002C003C004C00590000075F08074431C
:100AA0001211CBAA82AB83ACF0FDE58124FCF58169
:100AB000D001D000D007D006C002C003C004C005DA
:100AC0008E828F8388F0E9121279AA82AB83ACF010
:100AD000FDE58124FCF581AE8A7F008E828F83C084
:100AE00002C003C004C0051213CFAE82AF83A8F0CA
:100AF000F9D005D004D003D002C006C007C000C0A2
:100B0000018A828B838CF0ED121279AA82AB83ACBE
:100B1000F0FDE58124FCF581C002C003C004C005DE
:100B200090C33E75F02E74391211CBAA82AB83AC00
:100B3000F0FDE58124FCF581C002C003C004C005BE
:100B400090000075F0B474431211CBAA82AB83AC51
:100B5000F0FDE58124FCF581C031C032C033C034E2
:100B60008A828B838CF0ED1213DCAA82AB83ACF00B
:100B7000FDE58124FCF5818A828B838CF0ED1211D6
:100B800097AA82AB837401B53506E4B536028002BC
:100B90008007C3E49AFAE49BFB8A828B8322538901
:100BA000F0438901C28C2285823985833A85F03BE6
:100BB0001210F2F53CA31210F2F53DA31210F2F55B
:100BC0003EA31210F2F53F79007A00C3E99537EAA7
:100BD00064808538F063F08095F050768903EACB25
:100BE00025E0CB33CB25E0CB33FCEB2539FBEC35D3
:100BF0003AFCAD3B8B828C838DF01210F2FBA3127A
:100C000010F2FCA31210F2FDA31210F2FEC002C0FB
:100C100003C004C005C006C001C03CC03DC03EC00A
:100C20003F8B828C838DF0EE12111AAF82E5812406
:100C3000FCF581D001D006D005D004D003D002EF5E
:100C400060088B3C8C3D8D3E8E3F09B900010A0245
:100C50000BCB853C82853D83853EF0E53F22E4F564
:100C600052F553F554120B9E1202969001F41201A4
:100C7000FC7474C0E07400C0E07480C0E01212E73D
:100C80001581158115817403C0E07401C0E0748082
:100C9000C0E074F7C0E07400C0E07480C0E074A6E7
:100CA000C0E07400C0E07480C0E07479C0E07400FB
:100CB000C0E07480C0E01212E7E58124F4F581758C
:100CC0001C057582011204AA751C067582011204A6
:100CD000AA12055C12057485824885834985F04A0D
:100CE000F54B1206C185824C85834D85F04EF54F3C
:100CF000854882854983854AF0E54B120820A88201
:100D0000AD83AEF0FF74F3C0E07404C0E074B5C00E
:100D1000E0743FC0E088828D838EF0EF1213DC8593
:100D2000824085834185F042F543E58124FCF581CD
:100D3000854C82854D83854EF0E54F1208E3A982EC
:100D4000AD83AEF0FF74F3C0E07404C0E074B5C0CE
:100D5000E0743FC0E089828D838EF0EF1213DC8552
:100D6000824485834585F046F547E58124FCF5817D
:100D700090555575F08574411209A685825085837A
:100D8000517474C0E07400C0E07480C0E01212E7D7
:100D9000158115811581C050C051C04CC04DC04E49
:100DA000C04FC048C049C04AC04BC044C045C046FF
:100DB000C047C040C041C042C043740CC0E0740191
:100DC000C0E07480C0E01212E7E58124EBF581C039
:100DD00040C041C042C04390000075F07A74441294
:100DE00011CBAE82AF83A8F0FDE58124FCF5818EA6
:100DF000828F8388F0ED121197858257858358C0C2
:100E000044C045C046C04790000075F07A74441253
:100E100011CBAF82A883A9F0FDE58124FCF5818F79
:100E200082888389F0ED12119785825585835685D6
:100E30004C82854D83854EF0E54F1208E3AF82A8C2
:100E400083A9F0FD854882854983854AF0E54BC03A
:100E500005C007C000C001120820AE82AA83ABF013
:100E6000FCD001D000D007D005C050C051C007C091
:100E700000C001C005C006C002C003C004745BC04E
:100E8000E07401C0E07480C0E01212E7E58124F351
:100E9000F581E4FAFBE55130E70F7A017B00C3E40A
:100EA0009550F550E49551F551E4BA0104BB0001A9
:100EB00004FA7B007C00E55045517003020F63EBA0
:100EC0002552FDEC3553FEAF54751C0AE4F51D8523
:100ED0005082855183C002C003C004C005C006C053
:100EE00007121308A882D007D006D005D004D0037B
:100EF0007430288D828E838FF012137E74032BFD45
:100F0000E43CFEED2552FDEE3553FEAF548D828E4E
:100F1000838FF0742012137E751C0AE4F51D855032
:100F200082855183C003C004121397858250858344
:100F300051D004D003D0020BBB00010CEA700302B5
:100F40000EB6E55045516003020EB6EB2552FDEC9E
:100F50003553FEAF548D828E838FF0742D12137E25
:100F6000020EB674022BFBE43CFA8B048A05E555AD
:100F700045566075EC2552F559ED3553F55A8554B3
:100F80005B751C0AE4F51D855582855683C004C037
:100F900005121308A982D005D0047430298559821E
:100FA000855A83855BF012137E74032CFEE43DFFAB
:100FB000EE2552FEEF3553FFA8548E828F8388F0C2
:100FC000742012137E751C0AE4F51D855582855622
:100FD00083C004C005121397858255858356D005BA
:100FE000D0040CBC00880D808574012CFBE43DFA14
:100FF000E5574558607CEB2552FCEA3553FDAE546D
:10100000751C0AE4F51D855782855883C002C0030C
:10101000C004C005C006121308AF82D006D005D0A8
:1010200004D003D00274302F8C828D838EF0121383
:101030007E74032BFCE43AFDEC2552FCED3553FDA8
:10104000AE548C828D838EF0742012137E751C0A30
:10105000E4F51D855782855883C002C0031213979B
:10106000858257858358D003D0020BBB00010A024A
:101070000FF0EB2552FBEA3553FAAC548B828A838E
:101080008CF0E412137E752601D20090016C75F08D
:10109000801202C8752702D201855282855383854A
:1010A00054F01203509001F41201FC7A007B00C34B
:1010B000EA940FEB64809480501CEA2552FCEB35D7
:1010C00053FDAE548C828D838EF0742012137E0AF1
:1010D000BA00DC0B80D90ABA00010BEA2552FAEB00
:1010E0003553FBAC548A828B838CF0E412137E025E
:1010F0000CD420F71430F6148883A88220F507E674
:10110000A88375830022E280F7E49322E022E4AC16
:1011100083AB82FAF9748E02152DFFA8811818127C
:101120001555D2D133E6400730E70B7582012220F6
:10113000E70675820022C2D1121537E97003F582E5
:101140002230D101B3E433F58222E51C451D60460F
:101150007A01E51C25E0F51CE51D334012F51DE57F
:1011600082951CE583951D40030A80E6C3E51D13A7
:10117000F51DE51C13F51CC3E582951CF5F0E58310
:10118000951D4005F58385F082C3E51D13F51DE52A
:101190001C13F51CDAE122121580700AE5824583E2
:1011A00045F0700122E430D112F4700BE5F0F470D8
:1011B00006E58330E7012290800022700AE5F07096
:1011C00006E58320E70122907FFF2212165DBC0016
:1011D000030215FCEF60FA30D502B2D1E583B4FF0B
:1011E00003021612E582B4FF03021612258340079C
:1011F0002482400B0215FC2483145003021612F5BE
:1012000082EA8DF0A4A8F0EA8EF0A428F8E435F084
:10121000F9EB8DF0A428E935F0F9E433CA8FF0A496
:1012200029F9EA35F0FAEBF88EF0A429F9EA35F05D
:10123000FAE433FBEC8DF0A429F9EA35F0FAE43B4B
:10124000FBE88FF0A42AFAEB35F0FBE433CCFD8EFB
:10125000F0A42AFAEB35F0FBE43CFCED8FF0A42B74
:10126000FBEC35F0FC20E70312162A0215DBE4AC98
:1012700082FBFAF9748602152D12165D7900E5835A
:10128000B58202800D500312168BE583C39582123E
:1012900016A5E5D0C465D020E117EA2DFAEB3EFB98
:1012A000EC3FFC500974011216A5EC4480FC0215B9
:1012B000DBC3EA9DFAEB9EFBEC9FFC500FC3E49965
:1012C000F9E49AFAE49BFBE49CFCB2D112162A02E0
:1012D00015DB02207485821885831985F01A85092B
:1012E0001B9012D2021AC7C008858108E50824FBAA
:1012F000F51BE50824FBF8861808861908861A905D
:1013000012D2121AC7D00822C2D5E58330E70DD217
:10131000D5E4C39582F582E49583F583E51D30E736
:101320000BE4C3951CF51CE4951DF51D12114A3004
:10133000D50BE4C39582F582E49583F5832210985A
:101340000280FBAA998A82C002122074D0028A828B
:1013500022FCABF0AA83A982749EF582C2D1EC3044
:10136000E716D2D1E9F42401F9EAF43400FAEBF4F7
:101370003400FBECF43400FC12162A0215DB20F7D3
:101380001030F6118883A88220F507F6A8837583AC
:101390000022F280F7F022C2D5E58330E70DD2D5E6
:1013A000E4C39582F582E49583F583E51D30E70D6E
:1013B000B2D5E4C3951CF51CE4951DF51D1214FB74
:1013C00030D50BE4C39582F582E49583F58322AC96
:1013D00083AB827A007900748E02135A12165D3044
:1013E000D502B2D1BF0009BC000302161F021612BB
:1013F000BC00030215FCE583B4FF0BE582B4FF03D8
:1014000002161F0215FCE582B4FF03021612C395F3
:10141000835007247F400B0215FC248014500302E4
:101420001612C0E0E4CCCBCAF98D1C8E1D8F1EEFC6
:1014300054F0C4F51F758306851FF0EB84F582E92F
:10144000C4F9EAC4FAEBC4FBEC540FC47803D6FC2D
:1014500018EBD6FB18EAD6FA8582F0EDA4A8F0FDC9
:101460008582F0EEA428FEE435F0F88582F0EFA442
:1014700028FFE435F0F8E99DF9EA9EFAEB9FFBECD2
:1014800098FCAD1CAE1DAF1E30E7101582E92DF99A
:10149000EA3EFAEB3FFBE43CFC80EDC082D583984A
:1014A000C3E933F9EA33FAEB33FBEC33FCC3E99DD0
:1014B000EA9EEB9FEC9400B3E413F9D002D0E0C4B1
:1014C0004AFAD003D0E0C44BFBD004D0E0F5F0548E
:1014D0000FC44CFCD082158230F40FD3EC13FCEB1C
:1014E00013FBEA13FAE913F90582E930E70A7401FC
:1014F0002AFAE43BFBE43CFC0215F37A10E4FBFC23
:10150000E58225E0F582E58333F583EB33FBEC33AD
:10151000FCEB951CF5F0EC951D4006FCABF043820E
:1015200001DADD22FCABF0AA83A982749EC2D1F558
:101530008212162A0215DB7901AA82E68F82B58211
:101540001318E6B5F00E18E6B5830918E68A82B5D9
:101550008202790022B4800FE5F0700AE5837006FC
:10156000E58270027F00EFB6801518B6001018B63D
:10157000000B18B6000608080876002208080822A2
:10158000122089C3749E9582403979001216A530C5
:10159000D126E9F42401F582EAF43400F583EBF472
:1015A0003400F5F0ECF43400700AE582458345F030
:1015B000700122E430E70F22EC20E71489828A834D
:1015C0008BF02230D10AE4F582F583F5F0748022A5
:1015D00074FFF582F583F5F0747F22B98003EA1376
:1015E000B34010EA2401FAE43BFBE43CFC50047CE9
:1015F000800582BC000EBB000BBA0008E4F5F0F5D4
:1016000083F58222A2D1E582138CF092F78B838A34
:101610008222E4F583F58275F080F4A2D11322E4EE
:10162000F583F58275F0C0747F227804EC7011E5C3
:101630008224F8500AF582E4C9CACBFCD8EF22EC28
:101640007820058220E713D5820122C3E933F9EA25
:1016500033FAEB33FBEC33FCD8EA158222AA82ABD7
:1016600083A2F73392D16002D2F7F582ACF0E58124
:1016700024F9F8E6FD08E6FE0886F008E6A2F7334E
:1016800092D56002D2F7F583AFF022E582C583F5EB
:1016900082A2D133A2D592D11392D5ECCFFCEBCE5E
:1016A000FBEACDFA226040F82582500274FFF582F1
:1016B000E824F8501ECCCBCAF9E4CC24F85014CB63
:1016C000CAF9E4CB24F8500BCAF9E4CA24F8500351
:1016D00079002224086010F8C3EC13FCEB13FBEA3A
:1016E00013FAE913F9D8F122AA8274F9C0E074164A
:1016F000C0E0C00AC00B8A82220511E4B5110205C0
:101700001222AA8274302AFA24C6500A74072AFACE
:101710003002034302208A820216E8E582FAC454AA
:101720000FF582C002121702D002740F5AF582021E
:101730001702AA0CAB0DAC0EAD0FAE10751720EE54
:101740002EFEED235401FF4206EA2AFAEB33FBECAE
:1017500033FCED33FDC3EE95134008EEC39513FE45
:10176000430201D517D98A0C8B0D8C0E8D0F8E106C
:10177000227868E624D075F00AA4FA7869E624D0C5
:101780002AFA78678603BB2D04C3E49AFA7513011D
:10179000C3E464808AF063F08095F05029751703E4
:1017A0008A0374F62517401C0513E51714245CF80A
:1017B000E517245CF98704A604772E1BEBFA600476
:1017C000051780DE8B02EA30E70D785D8603785ED0
:1017D000A603785D762E0AE515600AE51504FB255B
:1017E00013F5138005300D020513785C8603E4BB06
:1017F0002D0104FB70062008033009020513300692
:10180000030218B8300757EB600C75822DC0021226
:1018100016E8D002801C30080C75822BC00212160C
:10182000E8D002800D30090A758220C0021216E845
:10183000D002785D8604BC2E0C758230C002121670
:10184000E8D0021514AC141514C3E5139C40030230
:1018500018FC758230C0021216E8D00280E7AC1482
:101860001514C3E5139C500C758220C0021216E8B3
:10187000D00280EA785C8604BC2D0C75822DC002F3
:101880001216E8D002801C30080C75822BC00212A0
:1018900016E8D002800D30090A758220C0021216A7
:1018A000E8D002785D8604BC2E52758230C00212E8
:1018B00016E8D00215148044EB600E75822DC0022C
:1018C0001216E8D0021514802030080E75822BC045
:1018D000021216E8D0021514800F30090C75822010
:1018E000C0021216E8D0021514785D8603BB2E0CD8
:1018F000758230C0021216E8D0021514751701C2A5
:101900000FE517245CF88603BB45030219B9BB2E0B
:10191000348A03C3E464808BF063F08095F0500F49
:10192000758230C0031216E8D0031B8B0280E48B53
:1019300002D20FE5157038200D030219B975822EF9
:101940001216E88074300F278A03EB30E71FC3E4D8
:1019500064808515F063F08095F0500C758230C07E
:10196000031216E8D00315150B8B0280DD8B0230B5
:101970000F0EC3E464808515F063F08095F050216C
:10198000E517245CF886038B82C0021216E8D002A9
:10199000300F0EE517245CF88603BB2E028002157B
:1019A000151514C3E464808515F063F08095F0404C
:1019B00003200F050517021901C3E464808515F0A3
:1019C00063F08095F0500A7582301216E815158084
:1019D000E830060FAA141514EA6008758220121662
:1019E000E880F122E5157003300D0D74072515FA16
:1019F000E514C39AF5148006E51424FAF514751756
:101A000000785C8602BA2B0F20080C785C762020C8
:101A100009057517010514200619AA14C3E464808A
:101A20008AF063F08095F0500A7582201216E8154E
:101A30001480E7C20FE517245CF88602BA00028022
:101A400069BA451F3002027665C3E464808515F0EB
:101A500063F08095F0500A7582301216E8151580F3
:101A6000E8D20FC3E5179402E433FA7014EA700E5B
:101A7000C3E464808515F063F08095F04003300F77
:101A800016E517245CF886028A821216E8E5172408
:101A9000FD50121515800E7402B51709300D06752C
:101AA000822E1216E80517021A35300619AA14C339
:101AB000E464808AF063F08095F0500A7582201209
:101AC00016E8151480E72285820A85830BE4F51158
:101AD000F512AA18AB19AC1A8A828B838CF01210FB
:101AE000F2FD74012AF518E43BF5198C1AEDFA7031
:101AF0000302206DBA25028003022065C206C207D8
:101B0000C208C209C20AC20BC20CC20DC203C2047F
:101B1000C2057513007514007515FFAB18AC19AD2F
:101B20001A8B828C838DF01210F2FAA3AB82AC83F5
:101B30008B188C198D1ABA25078A821216E88092A2
:101B40008A06BE3000402E8A06EE24C6402774FF67
:101B5000B51513E51475F00AA4FEEA24D02EF51489
:101B600070BFD20780BBE51575F00AA4FEEA24D049
:101B70002EF51580ACBA2E0A74FFB515A4751500A4
:101B8000809F8A06BE6100400E8A06EE24854007CB
:101B90005302DFD2028002C202BA20028075BA2349
:101BA00003021C22BA2A03021C27BA2B02805FBA46
:101BB0002D028055BA4202805FBA4303021C6CBA00
:101BC0004403021DA7BA4503021DC1BA4603021D04
:101BD000BDBA4703021DC5BA4903021DA7BA4C028C
:101BE000803BBA4E03021DC9BA4F03021DAEBA5064
:101BF00003021D40BA5303021C90BA5503021DB3E1
:101C0000BA5803021DB8021DF3D206021B21D208E6
:101C1000021B21D209021B21D20B021B21D20C0272
:101C20001B21D20D021B2174FFB51520300B0BE5D3
:101C30001B14F8881B8614021B21E51B24FEF88860
:101C40001B8606088607188E14021B21300B0BE535
:101C50001B14F8881B8615021B21E51B24FEF8883F
:101C60001B8606088607188E15021B21300B0AE515
:101C70001B14F8881B8602800FE51B24FEF8881BC6
:101C80008603088604188B028A821216E8021DF861
:101C9000E51B24FDF8881B860308860408860518C2
:101CA000188B0C8C0D8D0E8B828C838DF01221BACB
:101CB000AB82AC838B1674FFB51503851615200611
:101CC0001DC3E51695145016E514C39516F514AB0F
:101CD000141514EB60087582201216E880F1850C4B
:101CE00082850D83850EF01210F2FBFA6029AB1588
:101CF0001515C3E464808BF063F08095F050188A6A
:101D0000821216E8AB0CAC0DAD0E0BBB00010C8BB8
:101D10000C8C0D8D0E80C7200603021DF8C3E5163E
:101D200095144003021DF8E514C39516F514AB1481
:101D30001514EB7003021DF87582201216E880EE70
:101D4000E51B24FDF8881B86030886040886051811
:101D5000188B0C8C0D8D0EE50EFB30E7047A43805A
:101D600013EB546060047A50800AEB30E6047A4941
:101D700080027A588A82C0021216E875823A1216D8
:101D8000E87582301216E87582781216E8D002BA29
:101D90004902800BBA50028006850D8212171B85FE
:101DA0000C8212171B8051D20A75130A804A7513D0
:101DB00008804575130A8040751310803BD203805C
:101DC00037D2048033D205802FE51B24FDF8881B11
:101DD000860308860408860518188B0C8C0D8D0E5A
:101DE0008B828C838DF0E51112137EA3E512121302
:101DF0007E80058A821216E820030620040330053F
:101E000070E51B24FCF8881B8603088604088605F9
:101E10000886061818188B0C8C0D8D0E8E0FE50C8D
:101E2000E50DE50EE50F8B828C838DF0EE12209B85
:101E300074FFB51503751506300527747F550FFB24
:101E40008B10E510EB2BFB8B10E50E30E7067401D1
:101E50004510F510E51024684006749925104002DD
:101E6000D2043004061219E4021AD2121771021AAF
:101E7000D2E5137003021AD27B61300B2BE51B14E1
:101E8000F8881BE6FC3395E0FDFEFF8C0C8D0D8E73
:101E90000E8F0F200A5EAC0C7D007E007F008C0C44
:101EA0008D0D8E0E8F0F804C300C1FE51B24FCF81F
:101EB000881B8604088605088606088607181818F1
:101EC0008C0C8D0D8E0E8F0F802AE51B24FEF8885A
:101ED0001B860408860518ED3395E0FEFF8C0C8DFB
:101EE0000D8E0E8F0F200A0CAC0CAD0D7E007F0006
:101EF0008E0E8F0F300D43E50C450D450E450F60DE
:101F0000397408B5130C758230C0031216E8D0037B
:101F100080287410B51323758230C0031216E8D0E0
:101F20000330020C758278C0031216E8D003800AD1
:101F3000758258C0031216E8D003300A25AC0CADE8
:101F40000DAE0EE50FFF30E717C3E49CFCE49DFDEA
:101F5000E49EFEE49FFF8C0C8D0D8E0E8F0F800291
:101F6000C20A751600D20E8B00751000C000121741
:101F700032D000200E0DE510C4FCE6FD4CF61888AA
:101F8000038002A6100516B20EE50C450D450E4560
:101F90000F70D68803E514700375140120071A200A
:101FA0000617E51604FCC39514500E758220C00375
:101FB0001216E8D003151480E9300A0E75822DC080
:101FC000031216E8D00315148024E51660203008AB
:101FD0000E75822BC0031216E8D0031514800F3043
:101FE000090C758220C0031216E8D00315142006D0
:101FF0001EAC141514C3E5169C50273007047C3022
:1020000080027C208C82C0031216E8D00380E2C3D9
:10201000E51695145009E514C39516F5148003755B
:1020200014008B00AB161516EB6022B20E200E0AC0
:1020300008E6C4540FFB8B1080078603740F5BF512
:1020400010851082C000121702D00080D72006032E
:10205000021AD2AB141514EB7003021AD275822047
:102060001216E880EE8A821216E8021AD2851182D0
:1020700085128322AA82BA0A0810990280FB7599F8
:102080000D10990280FB8A9922AA82AB83A2F733B2
:1020900092D16002D2F7F582ACF022C0E0F845821E
:1020A000458345F07009F5F0FBFCFDFE022169E86F
:1020B00023A2F792E0F8A982AA83D2F7ABF07C00C2
:1020C0007E07C3749798404074FF2EFE740A89F00F
:1020D000A4F985F082740A8AF0A4FA85F083740A60
:1020E0008BF0A4FB740529F9EA3582FAEB3583FB02
:1020F000740035F0FCC3EC13FCEB13FBEA13FAE9B4
:1021000013F908EC70EF80BAE8C3947FF88B838EE4
:10211000F0E4FBFCFDFEFF08C3E933F9EA33FAE51E
:102120008333F583EB3BD4FBEC3CD4FCED3DD4FD99
:10213000EE3ED4FEEF3FD4FF602D05F074052BD4A6
:10214000FBE43CD4FCE43DD4FDE43ED4FEE43FD4C7
:10215000FF758204C3EF13FFEE13FEED13FDEC13C6
:10216000FCEB13FBD582EDD8AF785CD0E020E70420
:10217000762B8002762D087906E7C4540F4430F69A
:1021800008B90603762E08E7540F4430F60819B94B
:1021900002E7764508E5F020E704762B8004762DEB
:1021A000F4040875F00A844430F608E5F04430F68B
:1021B00008E4F690005C75F04022AA82AB83ACF094
:1021C0007D007E008A828B838CF01210F2FFA3AA1E
:1021D00082AB83EF60070DBD00EA0E80E78D828E33
:1021E000832200000000000000000000000000004A
:00000001FF
